:020000021000EC
:10B00000004000200149020041490200434902007A
:10B010000000000000000000000000000000000030
:10B020000000000000000000000000004549020090
:10B0300000000000000000004749020049490200EA
:10B0400021DA01004B4902004B4902004B49020042
:10B050004B490200000000003DDE01004B490200A8
:10B060004B4902004B4902004B4902004B49020088
:10B070004B4902004B4902004B4902004B49020078
:10B080004B49020025B401004B4902004B49020024
:10B0900001B501004B4902004D5302004B4902002B
:10B0A0004B4902004B490200000000000000000074
:10B0B0000000000000000000000000000000000090
:10B0C00010B5064C2378002B07D1054B002B02D07E
:10B0D000044800E000BF0123237010BD8820002039
:10B0E00000000000A45A0200084B10B5002B03D04A
:10B0F0000749084800E000BF07480368002B00D15B
:10B1000010BD064B002BFBD09847F9E7000000006C
:10B110008C200020A45A02007420002000000000AF
:10B12000164B002B00D1144B9D46402292029A1AD6
:10B13000924600218B460F461348144A121A00F01B
:10B1400065F80F4B002B00D098470E4B002B00D01A
:10B1500098470020002104000D000D48002802D06F
:10B160000C4800E000BF00F02DF82000290003F09B
:10B170003BFF00F011F8C04600000800004000202E
:10B18000000000000000000088200020742C002037
:10B190000000000000000000084B10B50400002B68
:10B1A00002D0002100E000BF054B1868836A002B25
:10B1B00000D09847200000F031F8C04600000000A1
:10B1C0000C57020070B500260C4D0D4C641BA410EA
:10B1D000A64209D100260AF08DFA0A4D0A4C641BDA
:10B1E000A410A64205D170BDB300EB5898470136B4
:10B1F000EEE7B300EB5898470136F2E76C200020E9
:10B200006C2000206C200020702000200300821899
:10B21000934200D1704719700133F9E7FEE7C04649
:10B22000F8B54E46DE4657464546E0B5224B1978FE
:10B23000994600292AD0214B00249846204B214FC3
:10B2400001269A4603E00134E4B28C421ED2434602
:10B250001B6832009C46E500654428783B688240C4
:10B260001342F0D093433B6002F0DEFD33002A78B6
:10B270005146934009680B40010091408B420BD02E
:10B280004B4601341978E4B28C42E0D33CBC904682
:10B290009946A246AB46F8BD6B689B46002BEFD0A3
:10B2A000697801394B424B41191A4D424D4110000A
:10B2B000E9B2D847E4E7C046A4200020D42000200B
:10B2C000CC200020D0200020F8B5124D0700280027
:10B2D00000F090FC002807D10124BC400E4E3368DA
:10B2E000234202D0A3433360F8BD380002F09CFD36
:10B2F0000A4A136800280BD02343136033680022E6
:10B300001C43074B28001968346000F013FCEBE77E
:10B31000A343F2E7AC200020D0200020CC20002066
:10B32000A8200020F0B54746CE4680B50D000700A6
:10B3300083B014000720042A04D803B00CBC904644
:10B340009946F0BD02F068FC00282DD0194B1A4A2E
:10B350001F601A4B1D701A4B1C6000231360194AA2
:10B360006C1E1360E4B2002D18D0174B00269946CE
:10B370000323984601AD4246E300FB182A70AE70E5
:10B38000EE709A7818786A7029004A4602F04EFCEE
:10B390000028D2D1013CE4B2FF2CECD10B4A0021B1
:10B3A0000B4800F0ADFBC8E702F0FCFB0028CDD055
:10B3B000C3E7C046D4200020CC200020A4200020D9
:10B3C000A8200020D0200020C9B2010021B2010035
:10B3D0001057020070B5094D2B78002B0BD00024BC
:10B3E000074E3268E300985C012102F0C9FC2B781B
:10B3F0000134A342F5D8002070BDC046A42000202F
:10B40000D4200020002300B585B001AA906000215F
:10B4100003481380536003F0BBFD05B000BDC04678
:10B4200001400000A021F0B50023C6462B4A490088
:10B4300000B553500431535004315350043153502C
:10B440004C39535004315350254B1B68002B35D0D9
:10B45000244900265458244A244F1268A41A002272
:10B460002402240A904602E0002D18D02B001A680E
:10B47000A24214D8A41AB6181A7CDD69002AF3D0A7
:10B48000424699691A745A693B68002B19D010001A
:10B4900098470028E8D0FFF7B5FF002DE6D1144902
:10B4A000144A0B7812789A420ED0134A9B009E5091
:10B4B00080218023114A49035B00D15004BC90468F
:10B4C000F0BD08009047CFE70132D3B2022B01D084
:10B4D0000B70EAE700230B70E7E7C046001001405D
:10B4E000F820002004050000F4200020D8200020CF
:10B4F000F1200020F0200020E820002000E100E002
:10B50000F0B55746DE464E464546E0B5AD4BAE4A31
:10B510001B68AE499A46097813788BB0994200D1DE
:10B5200018E10133DBB2022B00D117E11370A84AF6
:10B530009B009E5853469B191B02A24A1B0A13608C
:10B5400001230693A34B00201B789B46A24B5A462F
:10B550001B6898469F4B45465C785B68474603935B
:10B560009C4B9B780493974B1B6809939B4B1B78D0
:10B5700007930023089305930193A2421CD00399DB
:10B58000530089469B1804990132DB00D2B24B4428
:10B590008A4200D1D4E01978022900D1A0E0032921
:10B5A000EBD1002FE9D03874FF69002FFBD10123C4
:10B5B00000250193A242E2D1019B9146002B00D0CD
:10B5C000DBE0059B002B02D07E4B099A1A60089B9A
:10B5D000002B03D06A46814B127F1A70069B002B0A
:10B5E00000D065E14346DB1B5A1E93410025DBB2C8
:10B5F00006937A4B3E001B780793724B1B68984664
:10B60000754B1B6801930023029305939C46744B72
:10B610009A46002D28D06B68A9682C00ED69424637
:10B620009A1A1202120A524551D8521822606346E1
:10B630006360A360012323746346E361002E00D19D
:10B64000B8E031683000914205D3ABE0196891420F
:10B6500000D395E01800C369521A002BF6D122607E
:10B66000E361C461002DD6D15B464846984200D1C3
:10B67000BAE003995A008946D21804990133D200DE
:10B68000DBB24A44994200D199E001241178059433
:10B690000129EBD15468217C05910029E6D19B4614
:10B6A000936881466360D168A1601069E060526967
:10B6B000A261079A002A00D1F3E0059B059263601E
:10B6C000424600239A1A1202120A5245ADD9424646
:10B6D000D31A1B021B0A8B4258D2CA1A2260A6E751
:10B6E0005B68002F00D148E73900BB422AD0914661
:10B6F000019A94461A0002E09A4207D01900CB69D9
:10B70000002BF9D163464A46019336E7634602921D
:10B710000193029B4A4699468B4214D04B461B68C4
:10B7200002934B46DB699946CB61002B00D124E79D
:10B730001B6849469C46029B2F0063440B601CE734
:10B74000002228E7B946FF69002F09D001233D00F8
:10B750000193E3E7002300260693F3E60023E5E6E2
:10B760000125204B9D600123089307930593002337
:10B770000993013300250193D0E7174B1D6020E7A3
:10B78000891A19602260E361C4616BE76346236034
:10B790006360A360012323746346E361002E09D034
:10B7A0000022316801238A1A32600194E661029313
:10B7B00026002EE7012301942600029329E70023A7
:10B7C00063E7C046F4200020F0200020F120002094
:10B7D000E8200020DC200020F8200020E4200020C9
:10B7E000FEFF7F0000100140059B002B00D0D9E038
:10B7F000029B002B02D06D4B019A1A60BE4253D0BF
:10B80000002E00D197E06A4A6A496B4C885842463C
:10B81000821A12022578120A33680332002D21D1D0
:10B820008025D1266D02B6008D51403E8D51C02736
:10B830008026624DB6027F00EE512E6001250D601C
:10B840005F49604F0E682F21C046C046C046C046C3
:10B85000C046C046C046C046BE4200D0C0460139C0
:10B86000F2D12570934200D21300A82443445149D9
:10B870001B021B0AE4004E4D0B514A591B1A121AA7
:10B880001202120A1B0203321B0A9A4239D8002301
:10B890004D4A13700BB03CBC90469946A246AB464D
:10B8A000F0BD01220592BAE6069B002BEFD0A7E778
:10B8B0003E4B00241B6800250021002013E03A685D
:10B8C000B24218D8F968B61AA4183860FB69002982
:10B8D00007D05246FD613D0012191202120A7A6029
:10B8E000B9601F000699002FE9D1002900D180E638
:10B8F0002E4A13607DE6002900D050E0961B3E6082
:10B9000077E64B590B512E4B2E491A682F23C04610
:10B91000C046C046C046C046C046C046C0468A4231
:10B9200000D0C046013BF2D180218023234A890206
:10B930005B00D150ABE780218023204A8902D1509F
:10B940008023D22101241B4A5B02890053504039D5
:10B9500053501B4B546019682F231A481D00C046D2
:10B96000C046C046C046C046C046C046C0468142EA
:10B9700000D0C046013DF2D19460144A1660C04622
:10B98000C046C046C046C046C046C046C0468142CA
:10B9900000D0C046013BF2D1074B1E7077E7034948
:10B9A0000B60ABE70A4B187022E7C046F820002076
:10B9B0000405000000100140E520002000E100E047
:10B9C000682000200024F400E4200020F42000205F
:10B9D000DC200020F0B55746DE464E46454603249F
:10B9E000E0B583B00700019314400720002C06D077
:10B9F00003B03CBC90469946A246AB46F0BD002A37
:10BA0000F6D08026314DB60279302E50802040028B
:10BA10008046D22043462E4E80003350403833506B
:10BA20000120706081462B48006884462A48804681
:10BA30002F208346C046C046C046C046C046C046CA
:10BA4000C046C046C44500D0C0460138F2D1484681
:10BA5000B0605846C046C046C046C046C046C04614
:10BA6000C046C046C44500D0C0460138F2D11B488C
:10BA7000019B04701A4803601A4BFF201C709970D8
:10BA80005C705A60184B80221C60184BC5211C70DA
:10BA9000174B52031C70C0235B00EA5089006B589F
:10BAA00083433F3803436B50A123DB002A600439F2
:10BAB000F7506B580F4A00201A40C0231B02134353
:10BAC0006B500D4BF2580D4B1A6091E700E100E00E
:10BAD00000100140682000200024F400E520002030
:10BAE000D8200020DC200020F8200020F0200020BA
:10BAF000F1200020FF00FFFF04050000F4200020DB
:10BB000010B50B4B5B68002B0BD0002A07D0002828
:10BB100005D0036808201C7C002C04D010BD072031
:10BB2000FCE70820FAE759745A610020F6E7C0469E
:10BB3000DC200020F0B5C64600B52A4C82B0636810
:10BB400005000E001700002B08D0002806D00720A3
:10BB5000042905D802B004BC9046F0BD0820F9E7DE
:10BB60006B69002BFAD06B7C012B30D000239846F8
:10BB70006A460023D01DD37100F07EF86178A37867
:10BB80004A1CD2B2934224D02378934223D04B0054
:10BB90005B186168DB008C466344002B1BD00121DD
:10BBA0001148197011495D604158DE609960414645
:10BBB0005F6119616B46D879627000F07DF8802171
:10BBC00080230B4A49035B00D1500020C2E788461E
:10BBD000CEE70022D8E76B46D87900F06DF8042054
:10BBE000B8E7C046DC20002000100140040500003A
:10BBF00000E100E070B51E4C0500636882B00820CB
:10BC0000002B2BD0002D29D06B69002B26D06A4643
:10BC10000023D61D2B743000337000F02DF86178AE
:10BC2000A2784B1CDBB29A421AD022789A4219D0E1
:10BC30004A0052186168D2008C466244002A11D032
:10BC40000221117055603078637000F035F8802162
:10BC500080230020074A49035B00D15002B070BD29
:10BC60000023E2E7307800F027F80420F6E7C0462A
:10BC7000DC20002000E100E0F0B5EFF3108172B6A7
:10BC80000A4B5A68002A0DD101248025084E5C60B9
:10BC90007459084F3C401C6077510270002900D154
:10BCA00062B6F0BD01230370F8E7C046682C00209F
:10BCB00000E100E0FC06FFBC10B5084B5A68002A02
:10BCC0000BD0002809D1EFF3108272B604491C682A
:10BCD0000C605860002A00D162B610BD682C0020AC
:10BCE00000E100E0F0B52B4C83B063686688002B60
:10BCF00049D05A88284F0332920036019A18BB194E
:10BD000059688023DB00C818824224D213680133AB
:10BD100021D0224D9388AB4214D01388002B11D030
:10BD20001F4862608388016803209B00C9185388FC
:10BD300020700020033300909BB21A4801F006FAED
:10BD400003B0F0BD538803339B00D218824202D265
:10BD500013680133DED1BE19B389002B0BD0052344
:10BD6000022223700E4B0F489A801968013A002373
:10BD700001F048FAE4E7002301220A4801F042FA00
:10BD800004232370DCE7044F3601BB1959680A000D
:10BD90000832B6E77421002000220020FFFF0000D7
:10BDA0002022002078200020F0B5C64600B5436868
:10BDB0008C46002B03D0314A11688B4235D20023C8
:10BDC000624601272E492F4D138080234E68DB00E9
:10BDD000F41800230DE01A68013212D09A88AA42A2
:10BDE00009D01A88002A06D09A68904602689045C1
:10BDF00013D0002B0ED05A88033292009B18A34216
:10BE0000E9D363461F800137BFB21031032FDCD165
:10BE1000002007E033000833F1E743601A4B1B8929
:10BE20000381012004BC9046F0BD52689342C6D8FD
:10BE30009A07C4D1144A018912899142BFD102687C
:10BE400099688A42BBD10E494A68934207D980203B
:10BE5000C00080464244934201D200230AE04A696E
:10BE600000209342DED98021C90088464244934293
:10BE7000D8D20123624601201380D3E77820002026
:10BE800000220020FFFF000074210020F0B546468C
:10BE9000D6464F46C0B58C469988904601294BD866
:10BEA000284C0A010432A2180024A146264F141F70
:10BEB0002478002C3AD11C68002C3FD06588166885
:10BEC0000335AD0064198025ED00AA465644B442FE
:10BED0002AD22568013527D0A588BD421ED02588E5
:10BEE000002D1BD01C60002803D0A6880588AE4218
:10BEF000E2D16546002D03D026882D88AE42DBD1E5
:10BF000042460020A16811601B6853600F4B1B89DB
:10BF100013811CBC90469946A246F0BD6588033546
:10BF2000AD006419B442D4D34C461C60013189B2CF
:10BF3000998010320229BAD10A20EAE71668340043
:10BF40000834C0E700220020FFFF00007421002019
:10BF5000F0B5574645464E46DE46E0B5C74C8BB079
:10BF6000256F8146EB005F1BBF009846E3199A4698
:10BF7000E35D062B27D8C2499A008A5897460028C5
:10BF800000D0EDE0BF4E327B002A00D1A6E232782D
:10BF90003073072A17D8BC4992008A589746002860
:10BFA00000D0DDE04246521B92009346A3445A461D
:10BFB00012790392012A00D1CBE2002A00D1ADE22E
:10BFC000022A00D106E10F2705AE524612787760AB
:10BFD000023A012A00D8CCE0062B61D8AB4A9B007C
:10BFE000D3589F464246AA49521B8B469200A2183C
:10BFF000568A36015E44002800D0C4E0706831895A
:10C000008146127C89008944062A00D93BE3A14974
:10C0100092008A589746002800D0C2E0524616790E
:10C02000012E00D1C5E0002E00D19EE2022E00D1EB
:10C03000D4E0032E20D1984E00900223974A316815
:10C04000974801F083F88F4B914A5B8837681B0152
:10C050009446D21851685760B78831601781022220
:10C060006146B2804A465A5453461A7100283CD061
:10C0700043465B1B9B00E35C01208A490E270A783C
:10C0800005AE82430A70A0E70323337043465D1B6D
:10C09000AD006519EB88B3812B89F381EB68B36040
:10C0A000814D2F0020372B68002B01D0300098479E
:10C0B0000435BD42F7D1236F1C22D800C01A80007E
:10C0C00020180021FFF7A2F8636F002B08D0226F21
:10C0D000013B511C03220A4022676367002B0BD1EE
:10C0E0000421704A13788B4313700BB03CBC90460C
:10C0F0009946A246AB46F0BD0020FFF729FFF4E7C2
:10C100000223337043465D1BAD0065192B89B38153
:10C11000AB88F381EB68B3602B7C063B59425941F5
:10C120003174BDE70123337043465D1BAD006519D3
:10C130002B89B381AB88F381EB68B360B0E7002350
:10C140003370ADE705233370AAE704233370434609
:10C150005D1BAD006519EB88B3810023F3819FE778
:10C1600052460127127805AE023A7760012A00D9BB
:10C1700032E75246917D4D4A106C40181064506C65
:10C18000411A516428E7D1883089CA1C80180322DB
:10C190005242511A7289308152187281012705AEBC
:10C1A00013E701203F4901270A7805AE82430A7050
:10C1B0000BE7374A93461278022A00D161E25A46C9
:10C1C000127C022A00D14DE2022036490A7802434D
:10C1D000B2430A7005AE00227260FDE62E4F0023C6
:10C1E000012239682E4801F00DF853464A46BE80B8
:10C1F0001A713BE77288264B12019B189A89002A14
:10C2000000D1E9E1052302223370234B24489A80B0
:10C210001968013A002300F0F5FF0700002F00D154
:10C2200063E71C236B4305AEE35CCEE603201A4BA9
:10C23000726899881B6889005918538830700020EB
:10C24000033300909BB2164800F080FF0700E5E73B
:10C2500000233A1DA218009349460133104800F00C
:10C2600075FF434602215B1B9B00E21811740028F6
:10C2700000D13AE7E35C0E2735E0C0468821002074
:10C28000145702007421002030570200505702005A
:10C29000002200206C57020020220020FC570200E0
:10C2A0007820002070210020082100202821002073
:10C2B0003A00002349460832A21804310093D848B6
:10C2C000013300F043FF43465A1B9200A35CA218BF
:10C2D000D91E4F1EB94105311174002800D104E761
:10C2E0000E2700E0CF4F4246521B9200A218D18881
:10C2F0003089CA1C801803225242511A7289308137
:10C300005218728105AEC74A974200D163E75CE6D6
:10C31000C54BC64A1F88C64BC148596800230093C5
:10C32000013300F013FF002800D04DE101233F014D
:10C330005F44BB7343465D1B0623AD006419237441
:10C34000D3E60023BA48B849436043465B1B9B00D1
:10C350009B46E3189B690360FFF726FD002800D089
:10C3600076E75B460A27E35C05AE2EE6B14A536CDE
:10C37000002B00D105E10720116C013B4F1C384018
:10C38000C9001064536453188A58414600209B46E4
:10C390004F1BBF00E719B98A9B8889000090494468
:10C3A0009F4800F0D3FE5A46BB8A92889B18BB82F6
:10C3B000BB7D013BDBB2BB75002B01D101333B746C
:10C3C000002800D191E643465B1B9B00E35C0E27EF
:10C3D00089E73A00002349460C32A218009308313D
:10C3E00001338F4800F0B2FE43465B1B9B00E3180D
:10C3F0009B7D0122002B00D0023243465B1B9B0039
:10C40000E1180A74002800D16FE6E35C33E70723E4
:10C4100033700023884A7360116881480093874A0B
:10C42000023300F093FE0700F8E6834973688A88B8
:10C430005B8803329B188B8002233370FFF752FC1A
:10C440000700002F00D150E605AE1C236B43E35CD0
:10C4500059E77B4A738893461B015B44596806225F
:10C46000002332706E480093764A023300F06EFE6D
:10C470000700D3E63389724A0133338100231178F0
:10C4800033734B424B41B372127C53425341F372AC
:10C4900001233370B37A002B09D00023684AB372AA
:10C4A0009389002B03D1927B002A00D0D5E0F37A48
:10C4B000002B09D00023F372614B9A8B002A03D121
:10C4C0009B7F002B00D0C7E0002333707380736024
:10C4D00043465B1B9B00E35C05AE7CE63278072A93
:10C4E00000D970E5584891004058874601233370C1
:10C4F000D0E77388504A524910681B018B46C9180F
:10C500004F68486090881760088102219180A4E7F5
:10C51000072A00D957E54D4A5258974605AE0C22D6
:10C5200000213000FEF772FE5B46DB6802AA05932D
:10C5300094460A23634419003000FFF735FC0A27AC
:10C54000002853D1434602225B1B9B00E3181A715B
:10C5500064E63F4B1B789B0715D4082200213D4819
:10C56000FEF754FE022705AE6FE7334B334A1968D6
:10C57000009002232A4800F0E9FD0123524613717E
:10C5800074E51B68FFDEB81D05AE2018314B320084
:10C590000021FFF77BFC071E77D12E4B234A9B8897
:10C5A0001F489B464B4600937168012300F0CEFD67
:10C5B0000E37002800D048E75B46214A1B01D318FC
:10C5C0006A46127B9A7390E5434606215B1B9B00EB
:10C5D000E2181174E35C4EE65968013200231048FA
:10C5E00000F010FE04230700337017E65A46716806
:10C5F0000B488B880437D3800B88138102AB5E898C
:10C600004B460A4A0093012300F0A0FD002899D16F
:10C6100001220B4B36019B199A73002792E7C04603
:10C62000782000201D1D00002A220020F85702005B
:10C63000FC20002028210020202200200458020095
:10C6400000220020FC57020088570200A857020071
:10C65000702100202C22002001237380FFF742FB71
:10C660000700EEE601265B46002736019B19596854
:10C670000C4A022300970C4800F068FD5B469F556A
:10C68000F4E40026EFE70F272DE6082200210748F3
:10C69000FEF7BCFD0A2F00D0D7E61C236B43E35CFA
:10C6A00099E5C046FC570200782000202C2200208B
:10C6B00010B50800FFF74CFC10BDC046F0B545466C
:10C6C000DE4657464E46E0B587B001930C8990464A
:10C6D0004D68002C00D1E2E02B689B0700D085E07C
:10C6E0002F0000260837032304E03A6808371A426F
:10C6F00000D07BE00136B442F7D84346002B00D18E
:10C700009BE043461B889C4643465A88694F3B68DA
:10C71000013302933B6000239B46019B032B00D116
:10C7200086E0654B5F6F9846032F4CD80826634B15
:10C73000361B99465B6C0393B34244D80E884988F4
:10C7400033004646366F0491B91903260E40F100B6
:10C75000891B89004144CA805A460A7462466E4663
:10C760004A82032236798A820E706E46059A0B81C0
:10C770008A6100234246368A01378E80029E4B81B1
:10C78000CE608C755767002C3CD04946096C039BE2
:10C790008C4663441A0007234F461340DB00E10038
:10C7A0004B4469183837A046B246844603E013006C
:10C7B0000835A9421CD01A00280050C850C2BB42FC
:10C7C000F5D14B46F4E7634619013D4B08245B184D
:10C7D00003214942891A5A8952185A81200007B008
:10C7E0003CBC90469946A246AB46F0BD0324F5E713
:10C7F000534602934B465B6C444660469C464B4610
:10C8000064445C64002807D00023029A436083726A
:10C810002C4B02601B8903812B4A00241378590793
:10C82000DCD4042100200B431370FFF791FBD5E704
:10C830000368059304239B4673E70022E400043455
:10C840002E1D2D1933880836D21892B2AE42F9D176
:10C85000D51CADB20924FD2DC0D8194E3478002C5A
:10C8600007D173893489984644442C19A4B2FF2C0B
:10C870001BD9377C0724002FB0D1738B378B984698
:10C880004744EF19BFB2FF2FA8D801239C46063CAE
:10C8900024013619454475810C894D6836E7002A14
:10C8A00000D02EE700220325D7E7002300249C4672
:10C8B000EEE7C046842100208821002028210020A6
:10C8C00000220020742100207021002010B50649AC
:10C8D0000C220B78082B05D0044A9C00A0500022A3
:10C8E00001330B70100010BD282200200821002009
:10C8F000F0B5DE4657464E464546E0B58DB01422AB
:10C90000002107A8FEF782FCA74F3B789A0712D5B3
:10C91000A64C250020352368002B01D007A8984796
:10C920000434A542F7D100200DB03CBC9046994696
:10C93000A246AB46F0BDDA07F5D4012213433B70A3
:10C9400000F0A2FB9A4B1E689A4B1C688023DB0008
:10C95000E01808239946C0231B019C46A444634663
:10C96000029300239B46A144009303930193924AB0
:10C9700021682300914204D147E00433834200D16F
:10C98000EDE01A680132F8D05B465A4601330321C4
:10C990009BB29B46894D120151558023DB009C467A
:10C9A000029B64446044E1449C42E0D1009B002B24
:10C9B00000D0F6E06B461B790B2B05D8804A9B0014
:10C9C000D3589F46002305937E494B6F032B12D803
:10C9D0007D4A526C082A0ED80A6F9818032210401C
:10C9E000C200121A012092008A1810706846007D59
:10C9F000013310714B673B785A0794D4042200200E
:10CA000013433B70FFF7A4FA8DE763686F4A9342C4
:10CA100004D06F4A934245D02300B2E75B461B0126
:10CA20001A00049394460023644900258B54614402
:10CA30000A0002234C601381AA46A56849460135C5
:10CA400021D0644DA446A8461C00150011E08A6858
:10CA5000B24202D90123160000934A8803329300A0
:10CA6000A418A4B2C9182C8181420BD20B680133DF
:10CA700008D08A88424502D00A88002AE7D10123DB
:10CA80009A46EAE764464D4A049B944652466344FC
:10CA90009A730223019A1A435B4601339BB20192B7
:10CAA0009B467AE7039B002B2BD14B4D02232C6036
:10CAB000AB80A268494601324FD0464AA046944610
:10CAC00002E00A68013214D08A88624508D00A88D8
:10CAD000002A05D08A68B24202D9160001220092CB
:10CAE0004A88033294009B189BB20919AB8081429B
:10CAF000E7D34446022B30D00823019A1A4301920F
:10CB00004BE75A46110102222C4B334DCA545B1895
:10CB100029681A8159605B4601339BB29B46C5E781
:10CB20000B2001E7022305934EE7032305934BE710
:10CB300002223B781D4C13430122250093433B7096
:10CB400020352368002B01D007A898470434A5425C
:10CB5000F7D1E8E60123059336E70423CDE71E4B22
:10CB60001B680493002B14D014495B4602228C46A8
:10CB70001B015A5463441A815A465C60174B5A8011
:10CB80005B4601339BB29B460122019B13430193F9
:10CB900003E7114B104A1C6002239380013B03936F
:10CBA000F2E7034B1E6005E77021002008210020FA
:10CBB0008421002078200020DEC0ADDE002200208D
:10CBC000C85702008821002028210020FE011EF104
:10CBD000FF011EF1FFFF0000202200207421002031
:10CBE00030B5040083B00D000520002C0AD00029C8
:10CBF00008D06B462000991DFFF7D6F803000A20E5
:10CC0000002B01D103B030BD6B46DA88074B12010F
:10CC10009B189A89616801329A81296063680020B3
:10CC20000C336B600123A372ECE7C04600220020A6
:10CC300010B5040082B00520002C08D06B462000FF
:10CC4000991DFFF7B1F803000A20002B01D102B0B3
:10CC500010BD6B46DA88084B12019B189A8904387C
:10CC6000002AF4D0A17A0029F1D0013A9A81002358
:10CC70000020A372EBE7C0460022002070B5194BDC
:10CC80001A780223920701D4180070BD03330028DC
:10CC9000FAD0CA1C92B20433FD2AF5D8124C23787C
:10CCA000002B10D165892389EB18D3189BB2FF2B79
:10CCB00009D8002600231B01E418521962810023C1
:10CCC00006804180E0E7257C0723002DDCD1658BC1
:10CCD000268BAE199619B6B2FF2ED5D80126063B83
:10CCE000E9E7C046702100200022002030B50F4B3C
:10CCF0001A780223920701D4180030BD002812D000
:10CD000002880233022AF7D8094912018A18518988
:10CD100044880D1B032DEFD42900002303395181D2
:10CD200003804380E8E70523E6E7C0467021002042
:10CD30000022002010B50C4B1A780223920701D470
:10CD4000180010BD00290DD00C88084A0233944207
:10CD5000F6D04A88002AF3D0023B0022FFF7AEFC4F
:10CD60000300EDE70523EBE770210020FFFF000043
:10CD700070B50523002A04D00B4B1C780223A407AE
:10CD800001D4180070BD00290CD00D88074C023367
:10CD9000A542F6D04C88002CF3D0023BFFF78EFC66
:10CDA0000300EEE70523ECE770210020FFFF000001
:10CDB00010B50523002804D00C4B1A7802239207E3
:10CDC00001D4180010BD00290DD00C88084A023388
:10CDD0009442F6D04A88002AF3D0013B0022FFF7A4
:10CDE0006DFC0300EDE70523EBE7C0467021002052
:10CDF000FFFF000070B5164A02241378990701D48A
:10CE0000200070BD134902348842F9D0124D043419
:10CE1000696F0329F4D8114E766C082EF0D82C6F68
:10CE20000E1903242640F400A41B0526A4002C1987
:10CE300026700131043E2671E0806967002459079D
:10CE4000DED4042100200B431370FFF781F8D7E7ED
:10CE500070210020FFFF00008821002028210020F1
:10CE600070B5154A02241378990701D4200070BDCB
:10CE700012480634416F0329F8D8114D6D6C082D06
:10CE8000F4D8046F0D1903242540EC00641B06251B
:10CE90000131A400255441670A490878002801D0CF
:10CEA0000120087300245907E0D4042100200B431B
:10CEB0001370FFF74DF8D9E770210020882100207A
:10CEC000282100207421002030B583B06C4601ADCC
:10CED00029800A49E080097806340220890701D4B4
:10CEE00003B030BD002A06D0002B04D0290020005A
:10CEF000FEF7CCFFF4E70520F2E7C04670210020E2
:10CF000030B583B06B46D8800A489C1D0578022056
:10CF1000AB0701D403B030BD002908D0002A06D0E9
:10CF2000130000200A002100FEF7B0FFF2E7052001
:10CF3000F0E7C0467021002030B583B06B46D88042
:10CF40000A489C1D05780220AB0701D403B030BD10
:10CF5000002908D0002A06D0130020000A00002172
:10CF6000FEF794FFF2E70520F0E7C04670210020AD
:10CF7000002805D0002903D0036800200B6070470B
:10CF80000520FCE729DF704728DF704770B50B4CA0
:10CF90000500626E0020042A0FD0236ED318032BE5
:10CFA00000D9043B0132626618225343E418002181
:10CFB0002000FEF72BF901202C6070BD38220020E4
:10CFC00070B52F4C86B0636E002B10D0266E7500A6
:10CFD000AB19DB00E3181A7A012A0AD0022A25D1FC
:10CFE0009889FFF7D1FF112815D000281ED106B06F
:10CFF00070BD9A8AD88A121AFF2A14DC92B2AB1931
:10D00000DB00E318D9681B69800009181818FFF7BE
:10D01000B9FF1128E9D102211A4A13788B43042160
:10D020000B431370E3E780225200E8E7102200214F
:10D0300002A8FEF7EBF8AB19DB00E3181A7A012A15
:10D0400015D0022A07D1012202A90A709A89DB8928
:10D050004A81D31A0B81AD19ED0063195B68092170
:10D0600001930393635902A89B689847BFE7002286
:10D0700002A90A701A699B8A04928B81EBE7C04669
:10D080003822002034220020F0B5D6464F464646CE
:10D09000C0B52A4B5D696B1C4AD0294B99461B7859
:10D0A0009846DB073ED4274B27499C46C91A0909F5
:10D0B00032D00F00080160441A68002A03D05A6871
:10D0C000541EA241BF1A10339842F5D1002F23D02D
:10D0D00000260024F0B263460022A24606E05C6807
:10D0E000002C06D00132103391420BD01C68002C6A
:10D0F000F5D15C7B5445F5D9D0B20132A24610334C
:10D100009142F3D1030163441A7B5D609202AD1A30
:10D1100001361D60B742DCD1012342461A43130099
:10D120004A46137000201CBC90469946A246F0BDAA
:10D1300080235B055D69AD02AFE7C04600100010BB
:10D14000342200207820002088200020F0B54746B7
:10D15000CE4680B5284E9946337883B00500884680
:10D1600017000124DB0711D5002817D0234B013409
:10D1700098420BD3224B984208D2002A0CD0434647
:10D18000002B09D03B4306249B0709D0200003B0A5
:10D190000CBC90469946F0BD0324F7E70224F5E75E
:10D1A0002B68013C9845F1D34B466A689B00434489
:10D1B0009A42EBD34B46013C002BE7D001A8FFF786
:10D1C000E5FE03340028E1D0019B0A9A1D605A60F5
:10D1D0000122019B00241A7242461A614A46DF600E
:10D1E0009A82062332781A42D0D1043B134333701B
:10D1F000FFF7E6FECAE7C046342200207820002070
:10D2000088200020F0B54746CE4680B5254E994689
:10D21000337883B005000F0090460124DB070ED55C
:10D22000002814D0204B0134984208D31F4B984259
:10D2300005D2002909D0BB050624002B09D0200007
:10D2400003B00CBC90469946F0BD0324F7E70224D6
:10D25000F5E72B68013C9F42F1D343466A689B0285
:10D26000FB189A42EBD34346013C002BE7D001A8C0
:10D27000FFF78CFE03340028E1D04A464146019B6B
:10D28000BF0A1D605A60019A02231182062113729F
:10D290009781327800240A42D1D113433370FFF7CB
:10D2A0008FFECCE734220020782000208820002048
:10D2B000002804D0034B5B6E0360002070470320FE
:10D2C000FCE7C04638220020F0B54F464646D64619
:10D2D000C0B5A84FA84C3B7884B0266E9A073DD5C0
:10D2E000022800D1CDE0032800D189E073009B190A
:10D2F000DB00626EE318002A00D17BE072009046EA
:10D3000042469219D200A218117A01293DD0022971
:10D3100069D0102200216846FDF778FF43469B192B
:10D32000DB00E3181A7AE946012A00D1BFE0022A9D
:10D3300007D1694601220A709A89DB894A81D31A8A
:10D340000B81330049464344DB00E2185268E3583E
:10D350004A609B680921484698474BE004221A42DC
:10D36000C4D09343626E3B70002A43D00222134321
:10D370003B707300984642469219D200A2189B193E
:10D38000117ADB00E3180129C1D1D08A43469B19E9
:10D39000DB00E3189A8A121AFF2A00DD84E092B2B9
:10D3A00043469B19DB00E3188500D96818694919C1
:10D3B0004019FFF7E7FD11281AD102223B78934369
:10D3C000042213433B7015E0AB892A8A0133AB81F9
:10D3D000EB8901339BB2EB819A4200D18EE0636E00
:10D3E000002B07D02B009889FFF7CEFD1128E4D041
:10D3F00000288ED104B01CBC90469946A246F0BDD0
:10D400005E4A13780133DBB21370032B00D86DE74B
:10D4100000250021157068461022FDF7F7FE730005
:10D4200098469B19DB00E3181A7AE946012A5ED078
:10D43000022A07D1694601220A709A89DB894A814A
:10D44000D31A0B81330049464344DB00E21852688B
:10D45000E3584A6008219B6848469847636E5A1E05
:10D460006266002A69D102213B788B433B70236EB0
:10D4700001332366042BBDD100230026236623003D
:10D4800039E700239A4652463C4B1A70730098467F
:10D490009B19DB00E5182B7A012B11D0022B00D150
:10D4A00092E72B00626E26E78022520078E7002286
:10D4B00069460A706A4619699B8A0291938140E71E
:10D4C000AA8AE88A131AFF2B0FDD80235B00C0189D
:10D4D00043469D19ED0080B26519E882824232D040
:10D4E000636E002B00D051E784E79BB2EFE76A46FA
:10D4F00019699B8A157002919381A3E7102200217C
:10D500006846FDF783FE2B7AE946012B2ED0022BCD
:10D5100008D101234A4649461370AA89EB894A81FA
:10D52000D31A0B81330049464344DB00E2185268AA
:10D530004A60E35800219B688EE7236E5E1C2666D6
:10D54000042E99D015E7102200216846FDF75EFEF3
:10D550002B7AE946012BDAD100236A4613706B4619
:10D560002A699A604A46AB8A9381DBE76B4652464A
:10D570001A70F5E73422002038220020A022002073
:10D580000123034215D14210134214D182101342D9
:10D5900013D1C210134212D10211134211D1421100
:10D5A000134210D1821113420FD1C0110FD109487B
:10D5B00070470020FCE70120FAE70220F8E703208B
:10D5C000F6E70420F4E70520F2E70620F0E707205D
:10D5D000EEE7C046FFFF000010B5002819D0002973
:10D5E00017D00488944222D04488944221D0848861
:10D5F000944220D0C48894421FD0048994421ED003
:10D60000448994421DD0848994421CD0C0899042A0
:10D6100000D010BD072001228240002B03D00B78E0
:10D6200013430B70F5E70B7893430B70F1E7002081
:10D63000F1E70120EFE70220EDE70320EBE704200C
:10D64000E9E70520E7E70620E5E7C046F0B5DE4656
:10D6500057464E464546E0B583B00CAC24780028CA
:10D6600022D0002920D0002A1ED005889D4200D15A
:10D67000E1E045889D4200D1EAE085889D4200D1E5
:10D68000E8E0C5889D4200D1E6E005899D4200D1D1
:10D69000E4E045899D4200D1E2E085899D4200D1C8
:10D6A000E0E0C089984206D003B03CBC9046994661
:10D6B000A246AB46F0BD0720012383404842DBB2BF
:10D6C000002C5CD103342040904200D9100014009B
:10D6D000042A00D9B6E0D8430D78C0B205400D70D9
:10D6E000012C00D1C6E04D7805404D70022C00D1D0
:10D6F000C4E08D7805408D70042C00D0BCE0CD785E
:10D700002840C8700420A242CED0151B2E1FB60898
:10D71000AC46751CAB46AD00A846551E2D1B022D10
:10D7200018D91D021D43A9464E461F043743002643
:10D730001D063D43B2460027ED430C19E6592E4025
:10D74000E6510126B146CA440437DA45F6D34044CF
:10D75000C445A9D0DB430C182578DBB21D402570E9
:10D76000441CA242A0D90C19257802301D40257016
:10D77000824299D9081802781340037094E7032471
:10D780002040904200D910001400042A55D808788F
:10D7900018430870012C69D0487818434870022C4F
:10D7A00062D0887818438870042C61D1C8781843F7
:10D7B000C8700420A24200D176E7151B2F1FBF08B6
:10D7C0000137AC46BD00A846551E2D1B022D1DD9A4
:10D7D0001E021E43B146A3464C461D041E062543A9
:10D7E00035430024AA4600268B4401945D465446E6
:10D7F000AD592C435D46AC51019C04360134019473
:10D80000A742F3D84044C44500D14DE70D182C7809
:10D810001C432C70441CA24200D845E70C19257803
:10D8200002301D432570824200D83DE70818027877
:10D830001343037038E700203EE700240028BCD0E3
:10D840000400A4E70024002800D15EE7040042E7BA
:10D85000012031E702202FE703202DE704202BE7EA
:10D86000052029E7062027E70220A3E70120A1E7FA
:10D8700003209FE7012046E7032044E7022042E718
:10D88000002819D00388934218D0438893421AD0B5
:10D890008388934219D0C388934218D00389934256
:10D8A00017D04389934216D08389934215D0C389F8
:10D8B0000020934213D070470020FCE70023194159
:10D8C00001200840F7E70123F9E70223F7E70323E4
:10D8D000F5E70423F3E70523F1E70623EFE7072342
:10D8E000EDE7C04630B50023002935D0D40702D576
:10D8F0000B8883800123940704D55C004D880419AC
:10D90000A5800133540704D55C008D880419A580D7
:10D910000133140704D55C00CD880419A5800133B8
:10D92000D40604D55C000D890419A5800133940642
:10D9300004D55C004D890419A5800133540604D533
:10D940005C008D890419A5800133D21104D05A00DE
:10D95000C989821891800133036030BDA022012063
:10D96000024BD205D358DB0A9843704704050000E8
:10D970008021A022024B0901D205D1507047C04638
:10D980000C0500008021A123A0220901DB00D205A3
:10D99000D15070478021A123A0220901DB00D205CC
:10D9A000D15070478021A022024B0901D205D150ED
:10D9B0007047C0460C0500008021A022090110B567
:10D9C0000C00A120044BD205D358C0009C430B404F
:10D9D00002491450535010BD040500000C0500000E
:10D9E000A0230321044ADB0599508021A1220901CB
:10D9F000D20099507047C0462C070000A223A022F5
:10DA00000120D205DB00D3589B0F98437047C046D6
:10DA10001E38431E984140427047C0461E20704742
:10DA200010B51A4B1A68002A14D0002280211A60FF
:10DA3000C2220123164C9200C9058B506370A36863
:10DA4000002B07D01A6800205B68A2609847A36883
:10DA5000002BF7D10F4B1A68002A15D000221A604C
:10DA6000C223802202219B00D205D1500123084C01
:10DA7000A3702369002B07D01A6801205B6822611C
:10DA800098472369002BF7D110BDC0460001004024
:10DA9000A42200200401004010B500280BD1064C40
:10DAA000A368002B07D01A6800205B68A260984723
:10DAB000A368002BF7D110BDA422002030B583B09D
:10DAC0006B46DD1D002328002B70FEF7D5F8144CA3
:10DAD0002378002B09D0E36828780133E360012321
:10DAE000A370FEF7E9F803B030BD6360A360236163
:10DAF000E3600C4B1B68DB070CD507F0BBFB002871
:10DB000005D1A32380220121DB00D205D1500123BE
:10DB10002370E0E70321002000F006F8EDE7C0469F
:10DB2000A422002000E100E0F0B500281EDB1B4A23
:10DB300003249446FF2217008308C026C0B2044085
:10DB4000E4008901A7400A40A2409B006344B6005C
:10DB50009D59BD432A439A511F23C02118401E3BA3
:10DB600083400E4A490053501360F0BDFF240C4A15
:10DB70000325944622000F23C0B20540ED00890121
:10DB8000AA400C40AC400340083B9B089B00634408
:10DB9000DE6996433443DC61DEE7C04600E100E025
:10DBA00000ED00E070B54425184C0820665D002E9D
:10DBB00000D070BD01234022FF215B42A3540132FB
:10DBC000A1540132A354236201326362A362E3626F
:10DBD00023636363A363E363FC390238A3542360C4
:10DBE0006360A360E36023616361A361E361FFF7A6
:10DBF0009BFF074B80211E60C123064A9B0009063C
:10DC0000D150012300206355D3E7C046B82200203D
:10DC10007C610040006000404423034AD05C431E06
:10DC20009841C0B27047C046B8220020F0B5C64641
:10DC300000B5504C0825231820331E787F2E03D8BA
:10DC4000280004BC9046F0BDCD78AC46002D33D002
:10DC50000425A84625680126013500D185E0B500D8
:10DC6000635901332FD0731C9D00675901372BD0A6
:10DC7000B31C43451ED29D006759013724D0F31CC5
:10DC8000434517D29D00675901371DD0331D4345C9
:10DC900010D29D006759013716D0731D434509D234
:10DCA0009D00675901370FD00636464502D2E36919
:10DCB00001333ED00425C3E72569013530D0082360
:10DCC00005269846CBE733006251624627185EB2BC
:10DCD00020373E70002A28D08B78002B14D1030007
:10DCE000A0254A78C133FF3392009B00ED055A51BD
:10DCF000CB78002B20D1A4193C340B7822789B01DF
:10DD00001343237000259BE7A022D2059446E0250B
:10DD1000022783006344ED005A59BA435A51E7E79A
:10DD2000042504261D7004232261E3183C33187077
:10DD3000D2E707231C25C7E70F4AB6009446A22264
:10DD40006644D2000B780D4CB15800022140F824F3
:10DD500064012040C024B1501B04A402B1582340E8
:10DD600018430843B05000256AE7002622601E7061
:10DD7000B2E7C046B822002000600040FFE0FCFF90
:10DD80000023F0B5254C22182032D356032B18DD82
:10DD9000E3183C331B789B09032B33D0012B39D07C
:10DDA000C025AD02A023DB059C46E0238000604433
:10DDB000DB00C1581A4C2140C150C2582A43C250FE
:10DDC000F0BDD8B20328FBD8164DA227AC460126D9
:10DDD00098006044FF00C5593543C5511800654699
:10DDE00000274030800080B247510029E8D01278E7
:10DDF00052B292001259002AE2D09E40C1239B00E9
:10DE0000EE50DDE7A223A022DB00D205D358C340A9
:10DE1000DB07C5D48025AD02C4E7C046B822002088
:10DE2000FFFFFCFF00600040A223A022DB00D20520
:10DE3000D358C340012018407047C046F0B5DE46B5
:10DE400057464E4645460021E0B5C54A87B0039186
:10DE500013680024012B00D1B4E1C24B1A68012AD7
:10DE600000D1A3E1C04B1A68012A00D192E1BF4B57
:10DE70001A68012A00D181E1BD4B1A68012A00D13C
:10DE800061E123071CD0BB4BA22798460323012640
:10DE900000259946FF0026420ED0B74AAB009A18DB
:10DEA000D059D1594246D358002B05D04A46090CC7
:10DEB000C0041140C00E984701357600042DEAD108
:10DEC000002C06DB07B03CBC90469946A246AB4608
:10DED000F0BD00230493013B0593C1339A46B93B3F
:10DEE0009B464023A34AD1564B1C2DD0C9B2534662
:10DEF00008005A46984301230A409340C60805AAE1
:10DF0000925D134220D09B4A9A4C1218203212780C
:10DF1000890952B29200A258002A00D1F1E00329E7
:10DF200000D1F1E0A025ED05AC46E025870067446F
:10DF3000ED007D5903ACA65DAD03AD0F334200D0BB
:10DF4000B9E0032D00D187E102230093013B0326B2
:10DF5000994600254123874AD1564B1C2FD0C9B280
:10DF6000534608005A46984301230A409340C70885
:10DF700005AAD25D134222D07E4A7E4C121820326E
:10DF80001278890952B29200A2580192002A00D157
:10DF9000C8E0032900D1C8E0A024E405A04682001F
:10DFA0009044E0224446D200A25803ACE75D9203BD
:10DFB000920F3B4200D08FE0032A00D137E1422389
:10DFC0006C4AD1564B1C2DD0C9B2534608005A4654
:10DFD000984301230A409340C70805AAD25D134223
:10DFE00020D0644A634C121820321278890952B248
:10DFF0009200A658002E00D18CE0032900D18BE0BE
:10E00000A024E405A44682009444E0226446D200A1
:10E01000A25803ACE75D9203920F3B4268D1032AFA
:10E0200000D1EFE04323534AD1564B1C2AD0C9B24A
:10E03000534608005E46984301230E40B340C20891
:10E0400005AEB65C33421DD04A4C890926182036ED
:10E05000367876B2B600A659002E6CD003296CD063
:10E06000A024E405A4468700BC44E0276446FF00E2
:10E07000E75903ACA25CBF03BF0F134212D1032FB9
:10E0800000D1A8E0002D00D11CE7A223A022DB00D4
:10E09000D205D358039A9A4200D113E70393049B05
:10E0A00005931EE7022FEDD1032900D1EEE0002EEB
:10E0B000E8D0B047E6E7022D00D045E7032900D1BC
:10E0C000E7E002230093013B032699460025002A3E
:10E0D00000D13FE790473DE7022A00D06FE70329D0
:10E0E00000D1DAE0019B002B00D168E7984766E792
:10E0F000022A97D1032900D1C5E0002E92D0B04763
:10E1000090E7032900D01FE704ACA5192F781F431F
:10E110002F7007E7032985D104AAD21914781C436C
:10E1200014706DE7032900D049E704AAD2191478C6
:10E130001C43147030E70329A4D104ACA7183C7821
:10E140001C433C708CE700221A6080231B061C4392
:10E15000A022A223D205DB00D358039391E6C04648
:10E160000061004004610040086100400C61004013
:10E170007C610040B822002000600040C122484974
:10E180009200895808220A4200D175E60021144302
:10E19000196071E6C12242499200895804220A425C
:10E1A00000D164E600211443196060E6C1223C49B5
:10E1B0009200895802220A4200D153E600211443FA
:10E1C00019604FE6C120364C800024581C4000D115
:10E1D00043E6116041E6032900D068E78027BF02CB
:10E1E000E0236246DB00D5582E4A6446154062465D
:10E1F000D550D2584D463A43E250002E00D144E764
:10E20000B0473FE7032900D077E78027BF02E0232C
:10E210006246DB00D558234A644615406246D55015
:10E22000D2584D463A43E250009B994665E7032990
:10E2300000D057E78027BF02E02342464446DB0078
:10E24000D258184D2A40E250E2584D463A43E25027
:10E25000009B0096994645E7032900D031E78023CB
:10E260009B029C46E0236446DB00FE580D4D2E4089
:10E27000FE50FD5804262543FD5003230093013B27
:10E280009946012523E7C027BF02C0E7C027BF0288
:10E29000A6E7C0239B029C46E4E7C027BF02CBE76A
:10E2A00000600040FFFFFCFFF0B503261C2503784B
:10E2B00044681E4043780E490E489B001D400E4A9C
:10E2C0000B58FF2713400B50A0230022DB00CA503D
:10E2D000C0220B583F02920222403B40134360226F
:10E2E00064013343144023432B430B50F0BDC0461D
:10E2F0000070004004050000FF00FFFF30B5114B27
:10E30000114C124D1959020229400A431A51002892
:10E3100013D0A0220121D200995001238021094A63
:10E32000490013605358002BFCD000235350A12305
:10E33000DB00D0580123536030BDA022D20098509A
:10E34000EBE7C0460070004004050000FF00FFFF3F
:10E3500010B50220FFF730FB10BDC046F8B5050030
:10E360000C00FFF755FB00280FD1012C0ED0002C1C
:10E3700015D0022C09D1164B5C78002C05D0154B1A
:10E380001B68002B01D020009847F8BD104E737811
:10E390003478002B0DD1B2780F4B1A70EDE70F488F
:10E3A000FDF728FC0A4B9C780B4B1B78A342ECD161
:10E3B000E3E70B4B0B4F1B683A009900C918490063
:10E3C0000648FDF7B7FB0028E5D13D70E3E7C046FE
:10E3D00048230020742300207C23002028230020D1
:10E3E000242300200023002070B5724B1B68DB073C
:10E3F00000D470BD704E714D33782C78002B05D150
:10E40000172CF6D86E4AA300D3589F4600233370CA
:10E41000FFF7C0FAF4E7012301203370FFF7CCFACD
:10E42000684B00221B6868489900C918FDF782FBF9
:10E43000DFE7012301203370FFF7BEFA614B0022B2
:10E4400019686148FDF776FBD3E7604D2800FDF7BA
:10E45000D1FB11231C1B00D18EE0002800D08BE0E3
:10E46000012C0BD0C8306421604306F0ADFF554B42
:10E470000022196841432800FDF75CFB0220FFF7EA
:10E4800077FAB6E7FFF786FA12232B70B1E7FFF7AA
:10E4900081FA0020FFF76CFA13232B70A9E7FFF72E
:10E4A00081FA2C70A5E7FFF775FA00232B70A0E71F
:10E4B0000020FFF753FA002862D00020FFF762FA2D
:10E4C0002823022C55D02C7022E0FFF76BFA0C2386
:10E4D0002B708EE7FFF75EFA0020FFF749FA012064
:10E4E000FFF746FA15232B7083E7FFF753FA012055
:10E4F000FFF73EFA14232B707BE70020FFF72EFA7C
:10E50000002850D00020FFF73DFA082303222A708C
:10E510002C4A2D48116800225943FDF70BFB68E790
:10E520000020FFF71BFA002833D00020FFF72AFA5B
:10E5300028230422EBE70020FFF71AFA07232B70A9
:10E5400057E70020FFF70AFA002828D00020FFF73D
:10E5500019FA05232B701B4B002219681A48490031
:10E56000FDF7E8FA45E70020FFF726FA06232B70AF
:10E5700064E7163B2C70CBE70220FFF703FA38E77D
:10E580000020FFF7F5F90423022C9CD1023B2C70EC
:10E59000BEE70020FFF7ECF904230422B7E70020D0
:10E5A000FFF7E6F9D5E70020FFF7E2F9022303229F
:10E5B000ADE7C0464C2300205023002078230020E4
:10E5C0000C580200242300205423002004230020A0
:10E5D00010B50078FFF71CFA002808D1044B5878D2
:10E5E000002804D0034B1B68002B00D0984710BDB7
:10E5F000482300207423002010B5FFF7FFF910BD59
:10E6000070B57F4B05001B680024DB0701D4200098
:10E6100070BD7C4E3378002B06D1172D00D9EDE06C
:10E62000794AAB00D3589F463470FFF7B3F9F4E74B
:10E63000012301203370FFF7BFF9744B00221B68E0
:10E6400073489900C918FDF775FA0400DFE7012344
:10E6500001203370FFF7B0F96C4B002219686C4849
:10E66000FDF768FA0400D2E7FFF794F90120FFF7FD
:10E670007FF91422674B00241A70C8E70020FFF7C7
:10E6800077F90722634B00241A70C0E7FFF782F97D
:10E690000020FFF76DF90120FFF76AF915225D4BA5
:10E6A00000241A70B3E70020FFF758F9002800D1C2
:10E6B00099E00020FFF766F908230321554A1170FD
:10E6C00076E00020FFF74AF9002800D185E000201D
:10E6D000FFF758F928230421F0E70020FFF73EF95F
:10E6E000002800D184E00020FFF74CF90522494BB7
:10E6F00047481A70454B002219684900FDF71AFA7D
:10E70000040084E70020FFF757F90622414B1A70F6
:10E71000A2E7FFF747F90C223E4B00241A7076E778
:10E720003D4E3000FDF766FA04001120451B48D02D
:10E73000002C46D1012D0CD0B7306421684306F07F
:10E7400043FE324B0022196841433000FDF7F2F9D5
:10E7500004000220FFF70CF959E7FFF71BF912221A
:10E760002C4B00241A7052E7FFF714F90020FFF732
:10E77000FFF81322274B00241A7048E7FFF712F91D
:10E78000244B00241D7042E7FFF704F90022214BBF
:10E7900000241A703BE70020FFF7E0F8002814D0AF
:10E7A0000020FFF7EFF82823022D25D0194A157015
:10E7B000164A1748116800225943FDF7BBF90400B7
:10E7C00025E70220FFF7DEF821E70020FFF7D0F869
:10E7D0000423022DEAD1023BE8E70020FFF7C8F846
:10E7E000042304216AE70020FFF7C2F8022364E74C
:10E7F0000020FFF7BDF879E7163BD7E7002406E7CE
:10E800004C230020502300206C58020024230020B9
:10E810005423002078230020042300201D4B70B5D2
:10E8200019601D4B050018601C4B1A60830710D43B
:10E83000C3071BD41A4A00211A48FDF761F9041EC8
:10E8400005D1194A01211948FDF75AF904002000A1
:10E8500070BD0E22164B17481A704A080121FCF7AA
:10E8600061FD041E08D0EB07F1D500E00024FFF79E
:10E87000B7F8002CEBD1DDE7FCF7ACFD041EF2D1BC
:10E880000D4A00210D48FDF73BF90400EB07EED4DB
:10E89000EFE7C046242300204C23002074230020EF
:10E8A000E9E30100DC58020051E30100D458020002
:10E8B00048230020CC580200D1E50100D8580200BE
:10E8C0000723002801D018007047012A0DD0012924
:10E8D00012D0002905D002290BD1094B5A70002310
:10E8E000F1E7074B9A700023EDE7012903D00022DE
:10E8F000EDE70723E7E70E22014B1A700023E2E75A
:10E900004823002010B5FFF789F8A023DB059C46BB
:10E91000E02380006044DB00C25805490A40C25031
:10E92000C022C15892020A43C250002010BDC04606
:10E93000FFFFFCFF3CDF704710B50020FFF7E2FF50
:10E94000002801D0062800D010BD0020FCE7C046FA
:10E950000122014B1A707047702C002010B50A4B31
:10E960001B78002B00D110BD0020FFF7CBFF002843
:10E9700003D0062801D0FCF745FDFFF7DBFF002898
:10E98000F1D0FCF73FFDEEE7702C002010B50388B6
:10E99000102B08D0112B05D1294A1368013B1360B5
:10E9A000002B07D010BD264C2368002B11D001335B
:10E9B0002360F7E70E2202210020FFF781FF0028E5
:10E9C0002BD0072829D01F4B1B68002BEAD0984773
:10E9D000E8E70E2202210020FFF772FF002808D08E
:10E9E000072806D0174B1B68002B00D098472368D8
:10E9F000DDE70A2200210020FFF762FF002801D096
:10EA00000728EFD1042201210020FFF759FF002839
:10EA1000EDD00728E6D12368C9E70A2200210020AB
:10EA2000FFF74EFF002801D00728CCD10522012195
:10EA30000020FFF745FF0028B4D00728C3D1B1E775
:10EA40008423002080230020F8B5CE4647463B4B68
:10EA500080B50D1E186024D1394B1B68002B04D0E3
:10EA600000200CBC90469946F8BD0E2202210020E1
:10EA7000FFF726FF002801D00728F2D10A22002143
:10EA80000020FFF71DFF002801D00728E9D105224B
:10EA900001210020FFF714FF0028E1D00728E0D172
:10EAA000DEE78E0926D0FA27264B00249946264B0E
:10EAB0003F02984602E00134A6421BD04A463B0082
:10EAC0001268C046C046C046C046C046C046C046A2
:10EAD000C046424500D0C046013BF2D10020FFF7BE
:10EAE0008BFD0028E7D1A02380220121DB00D20585
:10EAF000D150FEE73F231D40FA239B006B43002BC0
:10EB00000FD0104A10491268C046C046C046C046E1
:10EB1000C046C046C046C0468A4200D0C046013BFF
:10EB2000F2D10020FFF768FD002800D094E7A02371
:10EB300080220121DB00D205D150FEE78023002096
:10EB400084230020682000200024F40076DF704732
:10EB50007ADF70477CDF7047A8DF704767DF704758
:10EB60003CDF704748DF70477047C04610B5FCF780
:10EB700049FC10BD10B5024806F0F2FA10BDC046BF
:10EB80004425002070B5204C82B02378002B12D190
:10EB900025261E4C2020A55DEDB26B1CDBB2A355D3
:10EBA000FFF7ACFB24211A4B5855A25D615C9142E2
:10EBB00014D002B070BD23786846DBB2002B09D0B8
:10EBC00000230122037042700193FFF76DFB0023C5
:10EBD0002370DDE7037043700193F6E70022200005
:10EBE000A255236206F080FA082302009A43E0D07F
:10EBF0001128DED0074B9842DBD0074B9842D8D083
:10EC0000FCF700FCD5E7C0464A2000204425002040
:10EC1000E4240020043000000134000010B5FFF7A8
:10EC20008BFE002806D1FFF79BFF002801D0FCF7E0
:10EC3000E9FB10BDFCF7E6FBF5E7C04610B50400A4
:10EC4000FEF742FB200001F02DFB10BD10B50400C3
:10EC500084B001F071FC200004F096FC21002D48E6
:10EC600006F078F921002C4805F0ECFE200001F0B8
:10EC70000FFC2000FFF78AFE2388112B3DD017D907
:10EC8000512B24D0552B0AD03A2B08D0200001F06C
:10EC9000A9FA2100214802F007FE04B010BDA088A7
:10ECA0001321FFF753FF0028F0D0FCF7ABFBEDE793
:10ECB000022B27D0102BE9D10720FFF7A1FC002859
:10ECC00001D0FCF79FFBA288154B1A80DEE7A379E1
:10ECD000002BDBD0A27B043A022AD7D8022B00D02B
:10ECE00001236A461370C1235B009380A0886946A4
:10ECF000FFF732FF0028C9D0D7E70122084B524264
:10ED00001A80C3E7064B00211888FFF727FF002869
:10ED1000BCD0CAE744250020FC2400203425002074
:10ED20004820002010B50378002B00D010BD054B03
:10ED30003B211888FFF70AFF0028F7D0FCF762FB99
:10ED4000F4E7C0464820002010B50B78042B0FD004
:10ED5000052B01D0002010BD8021A0220A4B4900C4
:10ED6000D205D15009480022EC39FCF7E3FEF2E766
:10ED70008021A123A0224900DB00D205D150034805
:10ED8000FCF738FFE7E7C0460C05000070250020BF
:10ED900010B5002807D0032804D10138FFF730FC54
:10EDA000002808D110BDFFF7C7FD002806D1FFF7E6
:10EDB000D7FE0028F6D0FCF725FBF3E7FCF722FB93
:10EDC000F5E7C04670B582B06B46002668461E70F7
:10EDD0005E700196FFF768FA2F4D10202C78631CA7
:10EDE0002B70FFF78BFAFF23012118402B4B2C4A85
:10EDF00019702B78A400A050042B01D002B070BD74
:10EE0000116853688C46916863448C46D2686344A9
:10EE10009B189B101A00913A2E70302A16DC102A8B
:10EE20002EDC002A20DDD210D4B221001D4805F0CE
:10EE300023FF082302009A43E0D01B4B9842DDD009
:10EE40001A4B9842DAD0FCF7DDFAD7E764243F2A60
:10EE5000EBDCC13B1A019C01A4189A00A418E3182A
:10EE60001B110F33DCB2E0E7FFF766FD002810D17D
:10EE7000FFF776FE00240028D7D0FCF7C3FAD4E7CA
:10EE8000A13BDC009A00A418E3185B110233DCB24A
:10EE9000CBE7FCF7B7FAEBE7E02400204A2000209C
:10EEA000D0240020FC2400200430000001340000A5
:10EEB00010B5052818D009D90A2804D00E2801D188
:10EEC000FFF746FD10BDFFF749FDFBE70428F9D128
:10EED0000B4B13211888FFF739FE082302009A43D1
:10EEE000F0D0FCF78FFAEDE7064C2378002BE9D140
:10EEF000032001F055F90028F3D101232370E1E745
:10EF000048200020712C002000B5037883B0033B1B
:10EF1000DBB20B2B0BD81A4A9B00D3589F46032019
:10EF200001F03EF9002807D10122164B1A7003B0F8
:10EF300000BD80680028FAD0FCF764FAF7E70069A2
:10EF40000028F4D0F8E704F0A5FBF0E7BFF34F8FFB
:10EF50000D4A0E4BDA60BFF34F8FC046FDE7012329
:10EF600001A90B70408804F091FBE0E7FDF778FF02
:10EF70000E28DCD0082302009A43D8D0DCE7C04634
:10EF8000E0580200712C00200400FA0500ED00E0BA
:10EF9000BFF34F8F034A044BDA60BFF34F8FC04675
:10EFA000FDE7C0460400FA0500ED00E010B50320BF
:10EFB00001F0F6F8002803D10122034B1A7010BDAE
:10EFC000FCF720FAFBE7C046712C002010B504497D
:10EFD000044802F067FC002801D0FCF713FA10BDCA
:10EFE00075EB010034250020F0B5CE46474680B5CC
:10EFF00000239FB0D44A05210F20FCF7EBFC00282A
:10F0000001D0FCF7FFF9D14A0121D148FCF778FD86
:10F01000002801D0FCF7F6F9CE4A0121CE48FCF7D2
:10F020006FFD002801D0FCF7EDF9CC4ACD2103207B
:10F03000FFF7F4FB002801D0FCF7E4F900210020E1
:10F04000FFF702FD041E04D0FFF7E8FD2000FCF7E7
:10F05000D9F9A023E4220321DB05D2009950A12293
:10F06000FD31D2009950BE4B07AD1B68D0220393EF
:10F070000793BC490023280006F002F9002801D0BC
:10F08000FCF7C0F90FAC22000121002006F076F950
:10F09000002801D0FCF7B6F9200006F087F9002817
:10F0A00001D0FCF7AFF9B04806F03CF9002801D0D8
:10F0B000FCF7A8F9AD4806F03FF9002801D0FCF7AD
:10F0C000A1F904F073FA002801D0FCF79BF905229E
:10F0D00000212000FCF79AF801218D2223780220DC
:10F0E0000B431340302213437F2213402370072326
:10F0F00063700933E278A37023790A430B43024318
:10F1000003432000E270237104F0B2FA002801D01A
:10F11000FCF778F9964804F091FA002801D0FCF742
:10F1200071F99448FDF7D2FB002801D0FCF76AF989
:10F130000F2301212A78904E9A430A43134010224C
:10F14000300013432B7006F0CDFA310082B2280054
:10F15000FFF700FD061E04D0FCF754F93000FCF761
:10F1600051F9082200212000FCF750F8834B2000C1
:10F170000F93C8239B041093FFF7EAFC002801D0EB
:10F18000FCF740F9FFF722FF182200212000FCF7CE
:10F190003DF87B4B0F220F93002301202021636059
:10F1A00014332375237A9343034313400B43237291
:10F1B00000236372A372E372237B934303431A40D9
:10F1C000704B0A43180021002273984605F0A2FDF7
:10F1D000002801D0FCF716F9142200212800FCF7C2
:10F1E00015F80F23012010216A7B00269A43024361
:10F1F0001A400A436A73AA7B01279A4302431A40C2
:10F200000A43AA730022EA732A7C07969A431043A2
:10F2100003400B432B745C4B2F711A68AE605B4B41
:10F220005B49C046C046C046C046C046C046C04610
:10F23000C0468A4200D0C046013BF2D105A8067004
:10F2400046704660FFF730F81020FFF757F8FF22AE
:10F2500002401100913930296FDD64233F2909DC18
:10F26000C13A110193015B1891005B189B181B11A7
:10F270000F33DBB201222B73464B1A70290046482C
:10F2800005F010FC002801D0FCF7BCF8434E444BBD
:10F290003C22338001230021B37020009946FBF704
:10F2A000B5FF0223237004330027E3704B4620226E
:10F2B000002128002382A7706661FBF7A7FF0123C6
:10F2C000EB7096235B002B61F03B6B612F70354B2D
:10F2D00000972A000021200000F08CFE002801D0B9
:10F2E000FCF790F81C2200212000FBF78FFF2E4A2C
:10F2F000002362602D4A0F93A260032222734246CC
:10F30000528A23742A4B200063612A4BE281A36155
:10F3100001F082F8002801D0FCF774F8F0210022F7
:10F32000C9012548FCF706FCFFF740FEFFF71AFC71
:10F330000028FBD0FCF766F8F8E710293EDC00292E
:10F3400045DDCB10DBB295E788230020C5ED010039
:10F350001459020085EB010018590200B1EE0100BA
:10F3600010590200002400204DEC01003DEC01008A
:10F3700009EF010069EB01001C5902002000400068
:10F3800049ED01004425002068200020400D0300C5
:10F390000024F4004A200020FC240020F82400204F
:10F3A0000F18000091ED0100881300003075000077
:10F3B00025ED01006DEB010014250020A13AD300DA
:10F3C00091005B189B185B110233DBB252E7034BD1
:10F3D0002E731F70FFF722FC50E7C0464A20002022
:10F3E00071DF704772DF704779DF70477DDF7047EC
:10F3F00065DF7047F0B5DE4657464E464546E0B5F8
:10F4000087B09B4610AB914604CB07001B88029146
:10F4100001931388904603930388002B00D16EE07C
:10F4200000239A4604AB0024DD1C03E03B88013432
:10F43000A3422EDD7B68A1009C460422614405A8FE
:10F4400006F047F90022290005A8FFF7D1FF061EA4
:10F450002BD12B784B45E9D15346002B2DD0434679
:10F460001A884B460199D3188B421DDC5A44290057
:10F4700005A8FFF7BDFF00283BD142462B78128834
:10F4800001349B184246138001239A463B88A342CD
:10F49000D0DC5346002B32D043461B88039A013BF5
:10F4A0009B1A9BB2FF2B26D90C26300007B03CBC20
:10F4B00090469946A246AB46F0BD43464A461B8855
:10F4C00001999A1802328A42EEDC424601336946BB
:10F4D0009BB213805A46097A05A8D15443461A882C
:10F4E0002900013292B21A805A44FFF781FF0028A6
:10F4F000C3D00600D9E711005A465354D5E7002679
:10F50000D3E7C046F0B557464E464546DE46002393
:10F51000E0B5178813802D331400C25C87B0050056
:10F520000E000023002A50D1AA78002A00D078E0EB
:10F53000E978002934D16A68002A14D0D91CB9426C
:10F5400026D802211278F1542388083101339BB266
:10F550002380F154238852B201339BB22380F254AA
:10F560002388013323802B89002B00D031E12B8AA3
:10F57000002B00D047E12B8B002B00D05DE12B6AE4
:10F58000002B00D1B0E02288911DB94200D869E07B
:10F590000C2007B03CBC90469946A246AB46F0BD55
:10F5A000DA1CBA42F4D80222F2542388013A013319
:10F5B0009BB22380F254238801339BB22380F15401
:10F5C000238801339BB22380B5E70C20082FE0D9B4
:10F5D00004A8FFF705FF0028DBD1082223880921B2
:10F5E000F2542388133201339BB22380F25402ABCE
:10F5F0009C462088153A013080B220806144301842
:10F6000006F067F8238802AA0633127A9BB2238099
:10F61000002A00D00122F254238801339BB22380B8
:10F6200082E704330C20BB42B3D804A8FFF7DCFE0A
:10F630000028AED103222388F254238816320133E6
:10F640009BB22380F254238802AA01339BB2128911
:10F650002380F3181A70120A5A70238802339BB25F
:10F66000238065E719888A46052900D8AFE0AD48B0
:10F67000504480B28046AC488446804500D8A6E01D
:10F6800058888146052800D8A1E0A64869468046EA
:10F69000C8444046C881C889604500D897E0A3485F
:10F6A000824504D0814502D0CA4500D98FE00521AA
:10F6B000B15422880D31013292B22280B154228895
:10F6C000013292B222801988B2181170090A517061
:10F6D0002288023292B222805988B2181170090A27
:10F6E00051702388023323806B6A9846002B2FD0F9
:10F6F000998820888A1C831C9B18BB4200D947E745
:10F70000FE2A00D944E7FF22033131542388013314
:10F710009BB22380F2544246238801339BB223805C
:10F720001288F3181A70120A5A7043462088023061
:10F7300080B220809A88002A0AD09968002946D091
:10F74000301805F0C6FF4246238892889B18238014
:10F750002C23EB5C002B00D08FE02B780020002BBB
:10F7600000D116E72A880720012A00D111E7228854
:10F77000901CB84200D90BE7012B05D16B780233FE
:10F780009B189F4200D203E7023FBF1ABFB202ABF1
:10F79000301804A91F81FFF729FE002800D0F8E6E1
:10F7A0002B78022B00D1B5E0012B60D00822FE2F70
:10F7B00000D9EDE62388791CF154238801339BB2EC
:10F7C0002380F25423880133FF182780E1E60720C5
:10F7D000DFE608239846A8440197009433000222EC
:10F7E00002214046FFF706FE002800D0D1E601972F
:10F7F00000943300102206214046FFF7FBFD00284D
:10F8000000D1B4E6C5E610239846A84401970094B9
:10F810003300022203214046FFF7ECFD002800D010
:10F82000B7E6019700943300102207214046FFF706
:10F83000E1FD002800D19EE6ABE618239846A844D7
:10F84000019700943300022214214046FFF7D2FDB5
:10F85000002800D09DE60197009433001022152166
:10F860004046FFF7C7FD002800D188E691E66B7897
:10F870009F429BD31F00082299E7AB6A9846002B52
:10F88000A5D09B880233FE2B00D981E60022914649
:10F89000163292461632934620885246013333542C
:10F8A000238801339BB22380F254424623880133DC
:10F8B0009BB223801288F3181A70120A5A704346BA
:10F8C0002088023080B220809A88002A0CD0996863
:10F8D000002900D17BE7301805F0FBFE4346208865
:10F8E0009B88C01880B220804B460133DBB299461A
:10F8F0005B46EB5C4B4500D82FE74B46AA6A5B00A2
:10F9000090464B449B00984443469B880233FE2B11
:10F91000C3D93DE602AB1B899F4200D246E71F00D8
:10F92000092244E77FF3FFFF7DF30000FFFF0000A3
:10F93000F0B54646D6464F461F23C0B596B002AA3C
:10F9400004000E00D38100282ED0C078430724D5B0
:10F95000002302AA93812D33E35C002B00D06EE1DB
:10F96000A3780EAF002B00D0A6E1002300210322D4
:10F9700006AD02276F54591C02339BB289B2013F76
:10F980006F54E85493B202AA93816268002A39D076
:10F99000D91C1F2929D90C2000E0072016B01CBC57
:10F9A00090469946A246F0BD002502AB9881002EF4
:10F9B00016D0F378002BF0D102AA94460E236344AC
:10F9C0001A000EA93000FFF79DFD0028E6D102AB1A
:10F9D0009B7B0EAA02A9097B2800FFF703FDDDE748
:10F9E00002ABDE8100220023F4E700201056022241
:10F9F0000A27EA545A1C02339BB292B2AF54E8541D
:10FA000002AB99812389002B00D0BEE0238A002B12
:10FA100000D0D8E0238B002B00D0F2E0226A002A2D
:10FA20003DD002AB9B89991D1F29B4D8108882460E
:10FA30000528B2D9D34F5744BFB2B846D24FBC46BF
:10FA4000B845AAD95788B946052FA6D9CD4F6846DB
:10FA5000B846C8444746C781C78967459DD9CB4F3B
:10FA6000BA4504D0B94502D0CA4500D995E705206A
:10FA70001227E854581C80B22F54981C80B202AF51
:10FA8000B8811788281807703F0A477004335288D6
:10FA90009BB2EB181A70120A5A7002AB9981676A0E
:10FAA000002F2FD0BB88991C984602AB9B899A1CCB
:10FAB00050181F2800D96EE7FE2900D96BE7404691
:10FAC0000330E854FF20591C89B2685492B202A94D
:10FAD0008A813988AA180433117098B2090A02ABD6
:10FAE00051709881BA88002A0CD0B968002900D1D9
:10FAF00053E7281805F0EDFD02ABBA889B899B18E7
:10FB000002AA93812C23E15C002900D0EFE0237846
:10FB1000002B00D14BE722880720012A00D13DE7C6
:10FB200002AA9289901C1F2800D934E7012B04D126
:10FB300063781B181F2B00D92DE71D230EAF9A1ACF
:10FB400093B22818390098463B80FFF74FFC0028F5
:10FB500000D023E72378022B00D119E1012B00D13B
:10FB60001DE1434608213B804346FE2B00D912E7A6
:10FB7000424602AB9B890132EA545A1C92B20233CC
:10FB8000A954434402AA938111E71F2327009846F2
:10FB90000837019305AB009302222B0002213800A5
:10FBA000FFF728FC002800D0F8E64346019305AB98
:10FBB000009310222B0006213800FFF71BFC0028C1
:10FBC00000D123E7EAE61F23270098461037019368
:10FBD00005AB009302222B0003213800FFF70AFC3B
:10FBE000002800D0DAE64346019305AB00931022CB
:10FBF0002B0007213800FFF7FDFB002800D109E7A3
:10FC0000CCE61F23270098461837019305AB0093D5
:10FC100002222B0014213800FFF7ECFB002800D053
:10FC2000BCE64346019305AB009310222B0015213F
:10FC30003800FFF7DFFB002800D1EFE6AEE60EAF9D
:10FC40003800FFF7CDFB002800D0A7E6082202AB62
:10FC50009B8906ADEA545A1C023398B21B2102ABB1
:10FC60009C4692B2A9541631988106226144281804
:10FC700005F02FFD02AB9B8902A99A1D92B28A81E1
:10FC80003978002900D001210733A9549BB202AA78
:10FC90009381A278002A0AD1E078002800D174E686
:10FCA000DA1C19001F2A00D863E60C2076E604331C
:10FCB0000C201F2B00D971E63800FFF795FB0028B8
:10FCC00000D06BE60322192102AB9B8906ADEA54F2
:10FCD0005A1C92B2A9549A1C398892B2AA1811706F
:10FCE0000433090A51709BB202AA9381D4E7A76A30
:10FCF000002F00D151E6BB880233FE2B00D94AE623
:10FD000002AA9089002290461632914616329246F7
:10FD10004A4601332B54431C9BB2EA54831C9BB2CA
:10FD200002AA93813A88EB181A700430120A5A70AA
:10FD300080B202AB9881BA88002A0FD0B968002936
:10FD400000D12AE6281805F0C4FC02AB9889BB88CC
:10FD5000C01880B202AB98815346E15C4346013340
:10FD6000DBB298468B4200D3D1E643465F00A36ADC
:10FD700047449C46BF006744BB880233FE2BC7D96B
:10FD80000C200BE67FF3FFFF7DF30000FFFF000078
:10FD90003B88984500D2E4E698460921E4E663787A
:10FDA000984500D2DDE63B8098460821DCE6C04657
:10FDB00073DF7047F0B5834C072287B0060000213F
:10FDC0002000FBF723FA804D804B2A68804F1A42AF
:10FDD00002D03B78012B3BD0AB78002B35D1637838
:10FDE000002B66D1A378002B63D1E378002B60D180
:10FDF0002379002B5DD16379002B5AD1A3795A1E48
:10FE00009341DBB2022E33D02DD9032E33D0042EF2
:10FE100047D12A790423002A43D03B706D4B1B68DD
:10FE2000002B31D100226C4B1A7018220021684639
:10FE3000FBF7ECF900236A46137013723B78042B2E
:10FE40005ED8664A9B00D3589F463B78022BC6D1AA
:10FE5000604B1B68002B00D1A7E00121604A0820FD
:10FE600011709847BBE7012E1BD16A78002A1CD17C
:10FE7000AA78002A18D1EA780323002AC9D03B7057
:10FE8000544B1B68002BCDD02A78002ACAD0554A83
:10FE90001278002AC6D101214F4A072011709847D5
:10FEA000C3E700263E70BDE70226002BE3D03E707C
:10FEB000B8E70123A6E76B462A8A1A82AA8A5A82E1
:10FEC0002B78002B00D173E0464B1B78002B00D021
:10FED0006EE0454B1A79002A02D11A7B002A67D0BE
:10FEE00003936A4602234148137200210233C37010
:10FEF000FFF71EFD002863D105223D4B1A703B78A9
:10FF0000002B12D1334B1B68002B17D1002019E0B6
:10FF10000222374B01941A7001236A4613706B4614
:10FF2000AA895A826A46AB6813826846FFF740FF87
:10FF3000002807D1274B1B68002BE7D02C4A1078EC
:10FF40009847002007B0F0BD0022294B1A70F1E756
:10FF50006B462A8B1A82AA8B5A822B78002B2BD0C5
:10FF6000204B1B78002B27D11F4B1A79002A02D176
:10FF70001A7B002A20D003936A4602231B4813727F
:10FF800000210233C370FFF7D3FC002818D10622EA
:10FF9000174B1A703B78B3E70123154A019413708D
:10FFA0006A46137000230493BFE70D4A137016E7E7
:10FFB00003220F4B1A70B8E704220D4B1A70B4E7F6
:10FFC0003B789DE7702600209425002000FFFF006D
:10FFD00091250020F8250020602700202C590200E0
:10FFE0006C260020612700204C200020B425002032
:10FFF00090250020F8B504000E000E20002C00D142
:020000022000DC
:10000000ADE0002A00D1AAE055490D380870002063
:100010005449087054480100A1CAA1C1A1CAA1C194
:1000200021CA21C1514A00211360514B069A5148FF
:100030001A600122504B52421A800832FBF7E6F850
:100040004E4D00213C222800FBF7E0F823782200E7
:100050002B70A3781032AB70E378EB7063786B7021
:100060002B00103303CA03C32B00103A083303CA12
:1000700003C32B000832183303CA03C3636A002B7F
:1000800011D03F4B3F4F6B62616A9F600A881A80B4
:1000900088889880002806D000238A68D25CFA54A9
:1000A00001339842F9D1A36A002B14D0364B374F55
:1000B000AB62A06A9F608188998002881A800023C1
:1000C000002905D08268D25CFA5401338B42F9D101
:1000D0002C23E25CEA54236A002B06D02C4B2B62C3
:1000E000226A5188598012881A806368002B00D0D8
:1000F0006B602849284B0A68D81D13600A68506055
:1001000018000E30906018001530D06018001C30B8
:10011000106118002330506118003133D3611F4B38
:100120002A30906118008A68103013608A68506025
:1001300018008A68203090608A6819003031D160D8
:1001400019004031116119005031516119007033AB
:1001500060319161D36131002800FFF7E9FBF8BD00
:10016000FC2500209125002094250020F825002062
:10017000F425002070260020F2250020B425002060
:10018000202600200026002078260020842600203B
:10019000A42600204C200020A8260020E0260020D5
:1001A00010B50D4B04001B7882B00820002B01D144
:1001B00002B010BD094B01A81C70FDF779F8019B36
:1001C000002B04D00122064B00201A70F0E720001B
:1001D000FFF7F0FDECE7C046FC250020912500204C
:1001E000F025002030B5038883B0112B1AD01B2BCB
:1001F0000AD0102B01D003B030BD837D012BFAD182
:100200008288224B1A80F6E7037A002BF3D1204B29
:1002100008201B78002B1FD11E4B1B68002BEAD037
:100220009847E8E700211C4A83881170174A128812
:100230009A42E0D1164B08201B78002BECD001220B
:10024000164B01A81A70FDF733F8019B002B17D04D
:100250000122134B1A70CEE7104D0521287801308A
:1002600005F022FA01A8CCB22C70FDF721F8019B11
:10027000002BEDD12000FFF79DFD0028BBD0CBE780
:100280000120FFF797FD0028B5D0C5E7F225002033
:10029000FC250020F4250020612700209125002066
:1002A000F025002030B5023883B0012803D8124C65
:1002B0002378002B01D103B030BD002323700F4BF6
:1002C00008201B78002B05D10D4B1B68002BF2D0AA
:1002D0009847F0E70B4B01A81D78FCF7E9FF019B5D
:1002E000002B02D001232370E5E72800FFF762FD11
:1002F0000028E0D0E8E7C046F0250020FC250020DB
:10030000F42500209125002075DF704776DF7047C7
:100310007ADF70477BDF704710B5184B82B01888C2
:10032000174B984214D0174A174C13780133DBB29D
:100330001370217B99420DD200231370237C002B74
:1003400012D16369002B03D0002201A802709847E4
:1003500002B010BD0D49FFF7D7FF0028F8D0A36900
:10036000002BF5D09847F3E73B21FFF7CFFF00289C
:10037000E7D0A369002BE4D09847E2E76427002088
:10038000FFFF0000B427002068270020AC270020D2
:1003900030B51B4B1B4A5B88118883B099420FD83C
:1003A00052889A420CD3184B5B69002B03D0012270
:1003B00001A802709847154C0023237003B030BD8C
:1003C000124C2378002B08D00F4B5B69002BF3D025
:1003D000002201A802709847EEE70D4B0A4D1B78EA
:1003E000002B0BD0A96800220A48FBF7A3FB0028CA
:1003F000E2D0AB69002BDFD09847DDE76968F2E710
:10040000A4270020AC2700206827002062270020B6
:10041000B427002084270020164902000B0070B585
:1004200032CA32C332CA32C312681A600022124B77
:1004300001681A70002916D0104C0832200005F00F
:1004400048F92000FFF764FF00280BD101220C4B74
:1004500052421A8000220B4B00211A700A480B4AA4
:10046000FBF74EFB70BD0548FFF754FF0028EDD0A9
:10047000F8E7C0466827002062270020AC2700204C
:1004800064270020B427002040590200190302000D
:1004900010B50388112B33D021D9122B18D0502B33
:1004A0001CD1204CC288E3899A4217D1038A022BBF
:1004B00014D1123000F04AF900280DD11A48FBF788
:1004C00099FB00280AD0A369002B07D0984705E0C4
:1004D000164B083006C806C3FFF75AFF10BD102B95
:1004E000FCD18288124B18301A80104B06C806C304
:1004F0000022104B1A700B4BDB89002BEED1EBE77F
:1005000001220B4B52421A8000220A4B06481A70F5
:10051000FBF770FB0028E1D0024B9B69002BDDD07C
:100520009847DBE76827002084270020A4270020C5
:1005300064270020B4270020F0B55746DE464E461B
:100540004546E0B5038889B00700112B00D16CE067
:100550001A2B50D0102B06D009B03CBC90469946BF
:10056000A246AB46F0BD374E03A8737D327D03AC87
:100570009A43331D19009846FDF7B4F9039B0025F3
:100580009946002B10D014239B4600239A46B3446F
:100590005246A3885946009240461D220135FDF778
:1005A00055F802344D45F3D1307DBC88C043C0B20C
:1005B000FCF7E6FF244B984240D031004000351D47
:1005C000301884802200280015310123FDF704F83B
:1005D00031002200280014310123FCF7FDFFBB7D10
:1005E0003100023B5A4253411631DBB2BA8828002F
:1005F000FCF7F2FFB0E71F23027A124E93429B41B1
:1006000031005B428288DBB2301D1731FCF7E4FF1A
:100610002F233A7A310093429B415B42DBB2BA8886
:100620001831301DFCF7D8FF96E782880548002373
:10063000010004301531FCF7CFFF8DE70420FAF7F5
:10064000E1FE89E7B8270020FFFF000070B50A4CE3
:100650000200251D0600217D2800FDF711F9030089
:100660000020002B07D0A17D32002800FDF708F9FB
:10067000431E9841013070BDB827002010B502001C
:100680000248C17D0430FDF7FBF810BDB8270020FB
:1006900010B502000248017E0430FDF7F1F810BDEC
:1006A000B827002010B5040003490A7D0431FDF786
:1006B00019F9200010BDC046B827002030B5094DFB
:1006C00000232968012402E00133182B07D02200FF
:1006D0009A40D8B21142F7D10A432A6030BD18209F
:1006E000FCE7C046B827002001238B4070B5064CBC
:1006F0000200256800201D4204D06118497E201D9B
:10070000FDF7BEF870BDC046B827002070B50124C3
:100710008C40064D2B68234207D0193169180435E7
:10072000130002002800FCF757FF70BDB827002017
:100730000123834010B5044A002114681C4201D0F3
:100740001218517E080010BDB82700200123007840
:100750001840704700788007C00F70470B7803700F
:100760004B7843700220704770B584B0050000F0EC
:1007700029FB0400112831D016D800282BD00C28D2
:1007800018D1072301ACA5802800237000F058FE83
:100790006080200002F06EFE0022114B28001978C4
:1007A000FFF7B4FF04B070BD862811D00D4B0022B6
:1007B0009842F2D0092301AE2800337000F040FEC9
:1007C00070803000B580B46002F054FE0022E4E78F
:1007D00001AC0823D7E701AC0123D4E70122DCE711
:1007E000ED2700200230000070B584B0040000F056
:1007F00037FB05000B282BD01BD90122112803D071
:10080000154B0022984206D1144B20001978FFF7AF
:100810007DFF04B070BD092301AE2000337000F0ED
:100820000FFE70803000B480B56002F023FE00221D
:10083000EAE70028EFD1022301AD20002B7000F081
:10084000FFFDAC806880280002F014FE0022DBE788
:1008500001AD0323F1E7C04602300000EC27002081
:10086000F0B5DE46454657464E46E0B589B003A88A
:10087000FFF718FF039B9846002B3CD0364B03AC88
:100880009946364B00259A4603E00135023445452A
:1008900031D04B46A68819783000FFF725FF071E98
:1008A000F3D0534630001978FFF71EFF8346002827
:1008B000EBD1300000F052FB082827D022D9284B7A
:1008C000984208D0274B984235D1274B9E4202D000
:1008D0003000FFF789FF4B463A0019783000FFF7E8
:1008E00015FF53465A46197830000135FFF70EFFC1
:1008F00002344545CDD109B03CBC90469946A2464C
:10090000AB46F0BD002808D0062816D1300000F014
:1009100097FD00F03BFB0027DDE705236A4630002A
:10092000137000F08DFD6B46588068469E80BB4674
:1009300002F0A0FDCFE71128CDD06A46092302902E
:1009400030001370968000F07BFD6B46588068463F
:1009500002F090FDBFE7C046EE270020EF27002001
:100960000230000001340000FFFF000010B584B029
:1009700004006B464088D8802378012B16D0002BCA
:1009800006D0022B02D12379002B17D104B010BD61
:100990006A4601A8137102F06DFD608800F074FED4
:1009A0000F4B9842F2D0FFF71FFFEFE76A46137133
:1009B000A38801A8138102F05DFDE7E700F064FE63
:1009C000074B9842E2D0074C01222178FFF79EFEA8
:1009D0002078FFF7ADFE0028D8D0FFF741FFD5E71C
:1009E000FFFF0000EE270020F0B5037885B004007B
:1009F000012B1CD14588224B9D4213D0280000F0CA
:100A00002FFA06000B2838D01AD90122112803D05A
:100A10001C4B0022984222D11B4B28001978FFF76B
:100A200075FE6588280000F089FA002801D105B01C
:100A3000F0BD164B608819780122FFF767FEF6E7D4
:100A400000280CD1022301AE2800337000F0F8FC1E
:100A5000B5807080300002F00DFD0022DCE7092334
:100A600001AF28003B7000F0EBFC78803800BD80BF
:100A7000BE6002F0FFFC0022CEE701AE0323E3E7F5
:100A8000FFFF000002300000EC270020EE270020CE
:100A900070B5047884B0072C01D004B070BD4588CF
:100AA000280000F08FF90600112829D014D800285A
:100AB00028D00C2816D101AE28003470B58000F083
:100AC000BFFC7080300002F0D5FC0022154B2800DE
